:020000040800F2
:10000000180F0020198B0008117F0008137F0008CB
:10001000157F0008177F0008197F00080000000006
:100020000000000000000000000000001B7F00082E
:100030001D7F0008000000001F7F0008217F0008CE
:10004000798B00087D8B0008818B0008858B000868
:10005000898B00088D8B0008D5800008958B0008DF
:10006000998B00089D8B0008A18B0008E5210008F2
:10007000A98B0008AD8B0008B18B0008B58B000878
:10008000B98B0008BD8B0008C18B0008C58B000828
:10009000C98B0008CD8B0008D18B0008D58B0008D8
:1000A000D98B0008DD8B0008E18B0008E58B000888
:1000B000E98B0008ED8B0008F18B0008F58B000838
:1000C000F98B0008FD8B0008018C0008058C0008E6
:1000D000098C00080D8C0008118C0008158C000894
:1000E000198C00081D8C0008E5800008258C00088C
:1000F000298C00082D8C0008318C0008DD210008B7
:10010000398C00083D8C0008418C0008ED21000866
:10011000498C00084D8C0008518C0008558C000853
:10012000598C00085D8C0008618C0008658C000803
:10013000698C00086D8C0008718C0008758C0008B3
:10014000798C00087D8C0008818C00080F810008E4
:10015000898C00088D8C0008918C0008958C000813
:10016000998C00089D8C0008A18C0008A58C0008C3
:10017000A98C0008AD8C0008B18C0008B58C000873
:10018000B98C0008BD8C00082DE9F84F74A7A2B007
:10019000D7E90045CDE900452C9EDFF8307C04917D
:1001A0008DF843605FF000016FA40D9112944FF041
:1001B000FF368246904699460FE0C3462C461BF810
:1001C000011B0498D0470028049000F0B2800D98DD
:1001D000401C641E0D90F2D1A84498F80000252818
:1001E00007D100210791089109910A910B910C9177
:1001F0000DE06A463146404600F0FEFF050001D1A1
:100200000D98B5E0D9D50125E6E741F0010118F8D0
:10021000010F2028F9D023280CD02B2804D02D281A
:1002200005D0302809D086E041F00201EFE741F027
:100230000401ECE741F00801E9E741F01001E6E7CD
:1002400000200F900AE00F98B84205DA00EB800317
:1002500002EB4302303A0F9208F1010898F80020AF
:10026000A2F130000A28EED398F800002E2818BF1B
:100270000E9629D118F8010F2A280BD1D9F80000C1
:10028000C9F8000008F1010850F8042BC9F8000073
:100290000E9219E02D280CBF18F8010B0020002247
:1002A0000E920BE040B90E9ABA4205DA02EB8204D4
:1002B00003EB4403303B0E9308F1010898F800303B
:1002C000A3F130020A2AEDD3ADF84010129898F845
:1002D000001000F09BFF08B118F8010B8DF84200E8
:1002E0009DF84200682804BF98F80010682903D1DF
:1002F00062208DF8420008E06C2804BF98F80000E6
:100300006C2804D171218DF8421008F1010813A85E
:1003100006904A4618F8013B02A9504600F068F8DA
:1003200038B913AA02A9504600F0CAF900287FF58F
:1003300054AF30461CE02A2882D1D9F80020C9F8F1
:10034000002052F8040BC9F8002000280F9003D5B4
:1003500040420F9041F0040108F1010884E70000D9
:100360000000000000000000686A6C747A4C000015
:1003700023B0BDE8F08F622820D0682811D06A2809
:1003800003D06C2827D0712825D10868C01D20F023
:1003900007000860D0E900230830086019461046BD
:1003A0007047002A0A680A60106803D0121D0A60AC
:1003B00000B217E0121D0A6080B217E0002A0A6836
:1003C0000A60106803D0121D0A6040B20AE0121DD4
:1003D0000A60C0B20AE0002A0A680A60106803D006
:1003E000121D0A60C1177047121D0A600021704774
:1003F0007CB50D4611461C462E69B4F1250200F06D
:100400004D811C3A00F08680121F022A40F2828041
:100410000E3A00F00781521F5AD0093A7AD0921E44
:1004200016D0521E35D0521E022A73D9121F30D058
:10043000521F00F09A80521E4AD0521E00F0E480F3
:10044000D21E00F0FD80921E42D0D21E40D02BE181
:1004500095F83A206C2A09D06869421C6A610A68DA
:100460000A6052F8043B0A60335427E10A680A60C4
:1004700052F8043B0A600021009301914FF0FF32D3
:100480002A6329466A4600F096F9002840F1168151
:1004900001E195F83A000122FFF76DFFC5E900017F
:1004A0000023994204DA6869411C69612D210DE03D
:1004B000288F810704D56869411C69612B2105E0FB
:1004C000C00722D56869411C6961202131541CE0B4
:1004D00095F83A000022FFF74EFFC5E9000195F8B4
:1004E0003800010711D5D5E900230020834208BF59
:1004F00082420AD044F02000782806D16869302171
:100500003154401C411C69613454214668693044AF
:10051000E86083E00868C01D20F007000860D0E9AB
:10052000002308300860C5E90023D5E90001C80FA1
:1005300004D06869411C69612D210DE0288F810775
:1005400004D56869411C69612B2105E0C00704D509
:100550006869411C69612021315468693044E86050
:100560002146284600F032FAA8E005F13A02507818
:1005700020B14FF0FF340FF6243070E0107862287D
:1005800008D0682824D06A2812D06C282ED0712870
:100590000ED02BE00A680A6052F8040B0A6020B9FA
:1005A0004FF0FF340FF60C3059E0E96A017085E036
:1005B0000A680A6052F8040B0A6020B94FF0FF3451
:1005C0000FF6F0204BE0EA6AD317C0E9002375E08C
:1005D0000A680A6052F8040B0A6020B94FF0FF3431
:1005E0000FF6D0203BE0E96A018067E00A680A6004
:1005F00052F8040B0A6020B94FF0FF340FF6B42014
:100600002DE0E96A016059E00A680A6052F8040BBB
:100610000A600021C5E90001EE607821284600F05B
:1006200029F94BE06C2285F83A200B680B6053F8EF
:10063000042B0B6052BB4FF0FF340FF6AC200EE0E2
:1006400095F83A206C2AF0D00868086050F8044BFE
:100650000860EC603CB94FF0FF340FF6702000F0FA
:10066000EFFD201A76BD2E6B002E04D5204600F03B
:1006700007FE044608E032460021204600F01CFE3A
:10068000002814BF041B3446AC6117E0294600F073
:1006900092F8002812D54FF0FF3076BD6869411CF2
:1006A00069612521315409E06969481C6861252286
:1006B0007254210002D0411C69613454002076BD7F
:1006C0002DE9F0410E460546716B7069B46A091A4E
:1006D000306A091AB069091A706A091AF069091AA8
:1006E00096F838000C1B410790460DD4002C0BDD0A
:1006F0002746B0682021A8470028B06057D0F06A8C
:10070000401C7F1EF062F4D1736942463146284690
:1007100000F0ACFC00284AD1376A002F0ADDB0682F
:100720003021A8470028B06041D0F06A401C7F1EED
:10073000F062F4D1B369F2683146284600F096FCC5
:10074000A8BB776A002F09DDB0683021A847B060E8
:1007500068B3F06A401C7F1EF062F5D1F068B169A1
:10076000F36942183146284600F080FCF8B9B76AB0
:10077000002F09DDB0683021A847B060B8B1F06A39
:10078000401C7F1EF062F5D196F8380041070BD56A
:10079000002C09DDB0682021A847B06038B1F06AAC
:1007A000401C641EF062F5D10020BDE8F0814FF0DE
:1007B000FF30BDE8F0812DE9F8470D46A3B02F6B5F
:1007C000002F8146904648BF6FF0004700F0A0FD23
:1007D000696B40180FF62C118128D1E90023CDE96F
:1007E000012328BF4FF0FF303ED20024002F2FDD21
:1007F000D8F8001001AA684600F000FD0646002E59
:1008000035D4D8F8000008B9761E30D4B7421FDBC3
:100810006869301881280AD30020686303AA294632
:100820004846FFF74DFF040012D40020686103A87A
:10083000D5F814A032466946504400F06FFDB2442A
:10084000C5F814A058F8040B002818BFBF1BCDD161
:100850002CB903AA29464846FFF732FF044614B9CB
:10086000002068616863204624B0BDE8F0874FF03F
:10087000FF34F8E72DE9FC4707468A463E69BAF19E
:100880006F0F08BF082405D04AF02001782914BF53
:100890000A2410243C25D7E90023BAF1640F18BFBD
:1008A000BAF1690F9046994606D100218B4203DACE
:1008B000D8F1000869EB49090020814508BF80454F
:1008C0001FD1386BE8B9082C4CD197F838000107D4
:1008D00048D530203B2586F83B0043E000280ED564
:1008E00097F8380000F01400102808D17A6B786966
:1008F000121A386A121A511A0029C8BF3962BDE8A3
:10090000F3878DF800A0404649462246E31700F0E1
:1009100059FD3032D0B26D1E3A28019504DB9DF8A6
:100920000000A0F151018A187255404649462246FE
:10093000E31700F047FD804689460020814508BF47
:10094000804503D0F86871198842DCD3082C09D19E
:1009500097F83800010705D5715D302902D06D1E6A
:1009600030207055C5F13C01B9617019F860386BE1
:100970008142B3DA411A39624FF6EF70398F014084
:100980003987BDE8F3872DE9D04306460F46144664
:100990004FF00008DFF8389412E0E00707D5424630
:1009A0004B463046394600F025FE06460F46404687
:1009B000494642464B4600F01DFE6410804689467B
:1009C000002CEAD130463946BDE8D0832DE9F34FFB
:1009D000054641F020048DB0D5E90089612C02AEB6
:1009E00009D0286B002848BF062003D408BF672C15
:1009F00001D101202863D5E9002358004015401C8F
:100A00000ED119030CD00320A8619DF8380061387D
:100A10001A2802D20FF2F46111E00FF2F4610EE035
:100A200058004015401C0FD119030DD10320A861B7
:100A30009DF8380061381A2814D30FF2DC61E86899
:100A4000032200F06BFCD3E1194621F00043B3F51B
:100A5000801F10460DD20027BB4208BFBA42019743
:100A600003D111E00FF2AC61E9E701AA00F094FEB6
:100A70000AE0DFF8607307EB1352DFF85C33019292
:100A80001940DFF858331943C5E90001612C0ED134
:100A9000E86830210170811CE9609DF838106129F7
:100AA0000CBF7821582141706869801C6861D5E9C4
:100AB00000AB2BF0004300202AF00002834204BF69
:100AC0008242002300F05A81612C40F0A980286BFB
:100AD00000284CBF2120401C00904046009F7F1CF6
:100AE00049460022002300F08FFED94601988DF878
:100AF000082038BF89F00049001F0190002FD04620
:100B00000DF1090040F3498140F2FF71DFF8D0B2E6
:100B10000C910646404649460022002300F08CFE18
:100B200080F03A814800400D00F11C0210D0002AEC
:100B30000EDD0C98824205DB09F0004040EA0B0113
:100B4000002013E0A448084040EA025140460DE06E
:100B500029F00043002028F00002834208BF8242AF
:100B60000FBF40461C22404600F07EFE804689466C
:100B700000F018FFFF1F002F044609DD00F030FFD2
:100B800002460B464046494600F03CFF80468946F7
:100B9000F01D072104E004F00F0200F8012D2411DC
:100BA000002C01DD491EF6D5491E5CBF002200F86D
:100BB000012DF9D5ECE00020194602AA0A4400E014
:100BC0005B1E12F80149491E8442F9D00F2804D156
:100BD0000DF10900425C521C4254002904D50198D1
:100BE000001D02AE5B1C0190591E12D49DF8380006
:100BF0007218147804F130085FFA88F4392CC4BFF5
:100C0000A0F13A04A044491E02F80189F1D58DF8FB
:100C10003800286B002840F1B080591E2963ACE0F1
:100C2000404649460022002300F0EEFD019938BFFE
:100C300089F0004947F2975041436A4A91FBF2F22A
:100C40000192D2F1070204DD40464946FFF79BFEC0
:100C50000AE0524200206449FFF795FE02460B4627
:100C60004046494600F040FF8046662C286BDFF87E
:100C70007CB106BF019F0A3706273F18142FC8BF53
:100C8000142730208DF8080089460DF1090000E096
:100C90003046002F34DD06464046494601F048F80C
:100CA00001460A4606F1080304200A26B2FBF6F6BE
:100CB00006EB860EA2EB4E02303203F8012C0A221C
:100CC000B6FBF2F202EB820EA6EB4E063036401E69
:100CD00003F8026DE9D1083F002F03F10806D7DDC4
:100CE000084601F039F802460B464046494600F0F6
:100CF00089FE00225B4600F07DFC80468946CBE7FA
:100D00000DF10901401A0DF1090604E00199491E8F
:100D1000401E0191761C31783029F7D0662C02D123
:100D20000199491C03E0652C0CBF012100212B6BAC
:100D3000CB189842B8BF431E002B1ED4834204DA5E
:100D4000F05C3528A8BF392000DA30201946721E21
:100D500002EB010800E05B1E18F80199491E81456D
:100D6000F9D0392802D1705C401C7054002904D598
:100D70000198401C16465B1C0190019800B200903F
:100D80001BB29DF838103246284600F035F82FE0A7
:100D9000C61D002F3FF7BEAE30460DF10901401AC7
:100DA000009903468842C8BF0B46002B0DF1090687
:100DB0003FF52FAF8342BFF6FEAE0DF10900C05CD8
:100DC00007287FF7F8AE0F20F6E60000CBCCCC0C5E
:100DD0000000244002FCFFFFFFFF0F800000E03F07
:100DE0000000F07FA08601000000F03F84D797410B
:100DF0000FB0BDE8F08F00002DE9F84783B006463C
:100E00008A461746984600F0FBF9B8F1000F406A91
:100E1000356B90F8009002DC4FF00108BFA7BDF9D8
:100E200030404AF02000662808BF641C15D06728AF
:100E300040F0848014F1040FC0F28680AC4280F24E
:100E4000838096F83800641C010702D4A845B8BF17
:100E5000454620B22D1A48BF00250FFA84FAF068E3
:100E6000B169BAF1000F25DC4A1C30234354002D30
:100E700003DC96F83800010703D5F06800F802900B
:100E8000521C15EB0A0FB8BF6C4220B24419414204
:100E90004445B8BFA046B26171620FFA88F5F561AA
:100EA000F068B3692A463946184400F037FA641BE3
:100EB000B462C4E022B29045084417DA424639468B
:100EC00000F02CFAB0694044B061AAEB0801002D93
:100ED000716203DC96F838100A0705D5F16801F84D
:100EE0000090F069401CF061B562A8E0394600F05E
:100EF00015FAB069002D5044A8EB040803DC96F8FD
:100F000038100A0703D5F16801F80090401CB06161
:100F10000FFA88F08542F068B369B8BFA8460FFAA7
:100F200088F207EB0A01184400F0F8F9B0690FFAEB
:100F300088F10844B061681A706280E0BAF1610F0C
:100F400014D14FF0700A16E0A84504DA96F838106C
:100F50000A0758BF45466D1E48BF0025BAF1670F06
:100F600014BF4FF0450A4FF0650A04E0BAF1410F93
:100F700008BF4FF0500AB169F368481CB061002DFA
:100F800017F8012B5A5403DC96F838100A071BD5C2
:100F9000F168431CB36101F80090002D14DDA8F145
:100FA00001080FFA88F08542F068B8BFA8460FFA2A
:100FB00088F23946184400F0B1F9B0690FFA88F1A7
:100FC00008446D1AB0617562F068B1690844002C7C
:100FD00080F800A003D42B214170811C03E02D2157
:100FE00041706442811C00206A460AE023460A24BC
:100FF00093FBF4F404EB8405A3EB450302F8013BF7
:10100000401C24B2002CF1DC012806DC4AF020024E
:10101000652A04BF302201F8012B48B9302001F8BD
:10102000010B07E0401E1DF80020303201F8012BB3
:101030000028F7DCF068B2691044091AF16196F8EB
:10104000380000F0140010280DD17169B069411802
:10105000706A4118F0694118B06A4118706B81429A
:10106000BCBF411A316204B0BDE8F087F8B505464F
:101070000E4617461C46002074B117F8011BB068D5
:10108000A847B06030B1F06A401CF0620020641ED6
:10109000F3D1F2BD4FF0FF30F2BD00007072696E07
:1010A00074665F733A20256E20646973616C6C6F9F
:1010B000776564007072696E74663A2062616420BC
:1010C000256E20617267756D656E74007072696E51
:1010D00074665F733A2062616420257320617267D1
:1010E000756D656E740000007072696E74665F7372
:1010F0003A2062616420256C7320617267756D65AA
:101100006E74000000000000000000006E616E00C0
:101110004E414E00696E6600494E46003000F0B404
:101120000246106895681318506803EB5004C00716
:1011300021D54D441FE0F0BC02F10C00704713F8BC
:10114000017B05F8017B491EF9D1A0B1B60813F85F
:10115000011B06F00306032E08BF13F8016B01EB19
:1011600006214942801C294405D011F8016B05F87D
:10117000016B401EF9D1A342DDD013F8016B16F0CC
:10118000030104BF13F8011BC91C30090F28DAD171
:1011900013F8010B0F30D6E71A48704730B4536884
:1011A000D418042B09DA41B1057804F8015B10F872
:1011B000015B15B15B1C491EF3E7536030BC7047FF
:1011C00038B514461D4661B1FFF7E8FF61686A6BE8
:1011D000204690476FF00102811A02D0491E03D0C9
:1011E00005E06FF0010032BD4FF0FF3032BD00214D
:1011F000616032BDDA6B1047024BE1E7014BF9E762
:1012000001487047A8020020700200200278C9B28D
:101210008A421AB11CBF10F8012FF9E718BF00204D
:101220007047B1F5807F02D34FF0FF3070470170F7
:10123000012070470078401E8041C043C00F7047B6
:1012400080B500B906A005490B681BB12222002118
:10125000984701E000F08DFD222002BDF40A002035
:10126000636F6E73747261696E742068616E646C12
:1012700065723A20626164206D6573736167650011
:1012800000F10103810704D010F8011B89B1810727
:10129000FAD10268B2F10131914311F0803F04BFED
:1012A00050F8042FF6E710F8011B11B110F8011BDC
:1012B000FBE7C01A70470100C9B2830706D0521E6F
:1012C00022D310F8013B9942F7D11FE0083A13D31B
:1012D00002F1040241EA012141EA014150F8043BD4
:1012E000121F21BF4B40A3F1013C2CEA030C1CF060
:1012F000803FF3D0C9B2001F083210F8013B521EE4
:1013000028BF91EA030FF8D818BF0120401E70478C
:1013100080B5FFF741FF006C02BD010062B38B078F
:1013200008D0521E11F8013B00F8013B00F0248068
:101330008B07F6D1830740F0208000BF103A07D317
:1013400030B4B1E83810103AA0E83810F9D230BC07
:10135000530724BFB1E80810A0E8081044BF51F8B3
:10136000043B40F8043BD20724BF31F8022B20F89D
:10137000022B44BF0B7803707047121F17D35B001A
:1013800009D151F8043B20F8023B1B0C121F20F836
:10139000023BF6D20BE051F8043B00F8013B1B0A7C
:1013A00020F8023B1B0C121F00F8013BF3D238BFA0
:1013B000121D521E24BF11F8013B00F8013BF8D862
:1013C00070470000B3BBD9B1B2F5803F7DD2022A8D
:1013D0001ED98C46B1FBF2F102FB11C31B0443EA98
:1013E0001043B3FBF2FC02FB1C3380B240EA034320
:1013F000B3FBF2F002FB103240EA0C4000237047CE
:10140000022A05D98446B0FBF2F002FB10C27047F5
:101410004AB105D100F0010249085FEA3000704787
:1014200000220023704700F0A7BC0B00020000213F
:1014300000207047904271EB030CF6D3B3F5803F68
:101440002FD2F0B5B3FA83F7B1FA81F4A7F10F0EFA
:101450003D1B5340CEF1200602FA0EF2F3415340F9
:10146000B5F10F0746D80F3C2C444140C4F120068B
:10147000A040F1414140B1FBF3F603FB1611A2FB82
:101480000645001BA94102D2761E8018594180EA08
:10149000010221FA0EF362FA0EF200215A403046A0
:1014A000F0BD30B4B1FBF3FC03FB1C11A2FB0C45F7
:1014B000001BA94103D2ACF1010C8018594130BC8A
:1014C00002460B46604600217047B2F1807F65D32B
:1014D000F0B5B2FA82F7B1FA81F4C7F10F063D1BFD
:1014E00022FA06F307F1110EF24120355A40B5F108
:1014F0000F07B8D94140C4F12006A040F141414056
:10150000B1FBF3FC03FB1C11A2FB0C45001BA94122
:1015100003D2BCF1010C801859410F2F12D30F3F99
:10152000C90341EA5041B1FBF3F603FB1611A2FBDC
:101530000645D4EBC030A94102D2761E801859412D
:1015400046EACC3C07B34140C7F12006B840F14120
:101550004140B1FBF3F603FB1611A2FB0645001B4D
:10156000A94102D2761E8018594180EA010221FA6F
:101570000EF3C7F1200462FA0EF20CFA07F05A409B
:101580002CFA04F13043F0BD80EA010221FA0EF397
:10159000002162FA0EF260465A40F0BD8C46B1FB63
:1015A000F2F102FB11C31B0243EA1063B3FBF2FC2E
:1015B00002FB1C331B024CEA002043EA1063B3FB1E
:1015C000F2FC02FB1C331B024CEA002043EA1063CE
:1015D000B3FBF2FC02FB1C331B024CEA002043EA83
:1015E0001063B3FBF2FC02FB1C324CEA0020002328
:1015F00070470600B0B581EA030C0CF0004C40F2D5
:10160000FF7515EA11541DBF15EA1357AC42AF42DE
:1016100039E0E41923EA455343F48013C90241F049
:10162000004141EA505EC7021100A7FB02020028F8
:101630004FF00000EEFB01204FF00001E3FB07211B
:1016400018BF42F00102401800214941E3FB0E019E
:10165000A4F580640F0302D252004041494154F185
:1016600001046CDD470872F1004250F1000051EBBB
:101670000451A1F580115CBF41EA0C01B0BD4CEAF8
:1016800005510020B0BD05EA1357AC4214BFAF426C
:1016900041E050EA410E1CBF52EA430E02E06146AF
:1016A0000020B0BD24423C441BD15FEA070EF6D0B7
:1016B000090302BF01460020AEF1140EB1FA81F712
:1016C000AEEB070401FA07FE0C37C7F1200100FA60
:1016D00007F7C8404EEA000E23EA455343F480134F
:1016E000A2E733F00043B3FA83F704BFB2FA82FEF5
:1016F00077440B3FE41BB7F1200E2FBF02FA0EF325
:10170000BB40C7F1200E22FA0EFE38BF43EA0E039B
:10171000BA40641C82E750EA410E14BF52EA430EFD
:101720006FF000014FF4001717EB430F8ABF194603
:1017300017EB410FB5E74CEA05510020B0BDD4F1DD
:101740000104B4F120070FDAC4F12007520828BFC2
:1017500042F0010210FA07F501FA07F7E1BF2A4348
:10176000E0403843E1400FE0352C98DCC7F120041D
:1017700052EA400220FA07F218BF42F0010231FAA1
:1017800007F0A1400A43002172F1004250F100002D
:1017900051EB0C01B0BD000010B5144600F002F88A
:1017A000226010BDC1F30A5343B14A0012F5001F75
:1017B00028D2A3F2FE32A1EB0251704750EA410C4D
:1017C00020D001F0004C31EA0C01B1FA81F204BFE3
:1017D000B0FA80F3D2180B3AB2F120032CBF00FA12
:1017E00003F1914041EA0C013EBFC2F1200C20FA06
:1017F0000CF319439040524240F2FD33D21A01EBF0
:1018000003517047002270474FF4001C1CEB410F3E
:1018100094BF1CEB430F09E041EA030C50EA4C0C67
:1018200052EA0C0C03D2994208BF9042704714BF91
:101830008B428242704700004FF4001C1CEB410FAA
:1018400094BF1CEB430F09E041EA030C50EA4C0C37
:1018500052EA0C0C03D28B4208BF8242704714BF7D
:101860009942904270470000124254D440F2FF7CEB
:101870001CEA11530FD0634531D09B1863453CBF20
:1018800001EB0251704701F0004141EA0C51002088
:10189000AFF30080704750EA410320D001F0004CC4
:1018A00091EA0C011CD0B1FA81F30B3B9A420DD99D
:1018B000D21A994051EA0C01C3F1200C20FA0CFC19
:1018C00061449840531C40F2FF7CD7E7914041EAC5
:1018D0000C01C2F1200C20FA0CF319439040704720
:1018E000B0FA80F31533202BE0D3202AEED3203A30
:1018F000203B9A4209D9D21A00FA03F141EA0C01BD
:101900000020531C40F2FF7CB8E700FA02F141EAE4
:101910000C0100207047524240F2FF7C1CEA115338
:101920000DD06345DBD0B2EB030C3CBFA1EB025101
:1019300070470CF1010221EA035141F4801150EA91
:10194000410CCCD001F0004C352A27DC30B481EAC0
:101950000C01B2F1200309DAC2F12003044601FAB6
:1019600003F5D0402843D1409C400CE0C3F1200255
:10197000450020FA03F418BF44F0010421FA03F0F3
:1019800091400C43002174F1004550F1000051EBEF
:101990000C01244230BC7FF47BAF704761460020CD
:1019A00076E70000C1F30A5340F2FE329B1A14DDC1
:1019B000D3F120034FEAE17208DDC90241EA505138
:1019C00041F00040D84080185040704703F2E130A9
:1019D00010B1D24382F000407047002070470000F1
:1019E000C11768B14840401AB0FA80F29040D21C4A
:1019F000C907C2F5846241EA025202EBD0214005D8
:101A00007047000070B44FF0004591EA030F40F1B9
:101A1000B5816B40841A71EB030603D2001BB14100
:101A2000121973414FF4001C1CEB410F34BF7CEBC7
:101A3000430442E00C0DA4EB1356352E4FDC45EA6F
:101A4000C323DB0A45EAC121C912B6F120050DDD29
:101A500063FA05F6EB4086EA0305124218BF45F02B
:101A60000105C01851F100010CD213E062FA06F52D
:101A7000F2405540F3415A40B340F3405A40801879
:101A8000594107D349085FEA30005FEA350528BFAE
:101A900045F0010501F58011420875F1004250F151
:101AA000000041EB04514E0016F5001F70BC38BF1A
:101AB00070470020090D090570471CEB410F10D23B
:101AC00052EA43060BD0BCEB410F05D80C0DAB43DB
:101AD000661E342EB6DD02E0AB438018594170BC5F
:101AE000704770BC70470000F0B540F2FF7581EAA6
:101AF000030C0CF0004C15EA11541DBF15EA1357E6
:101B0000AC42AF42E5E0BC41C1F31301C3F31303A0
:101B1000801A994143F4801304D2641E4000494165
:101B200080185941C90241EA5051B1FBF3F603FB59
:101B30001611A2FB0675D7EBC020A94102D2761E72
:101B400080185941C90241EA5051B1FBF3FE03FB31
:101B50001E11A2FB0E75D7EBC020A94103D2AEF136
:101B6000010E80185941890241EA9051760546EAF2
:101B70008E2EB1FBF3F603FB1611A2FB0675D7EB15
:101B80008020A94102D2761E80185941C90241EA3B
:101B900050514EEA060EB1FBF3F603FB1611A2FB01
:101BA0000675D7EBC020A94102D2761E8018594194
:101BB000C90241EA5051B1FBF3F703FB1711A2FB35
:101BC0000735D3EBC020A94167F100070CBF0042E5
:101BD00047F0010766F3D5274FEA1E31B80814F520
:101BE000806412DDBD0775F1004250EB0E5051EBE1
:101BF000045111F5801F5CBF41EA0C01F0BD4CF0AF
:101C00007F6141F0E0410020F0BDBD076D0840EA72
:101C10000E5041F48011D4F10104B4F120060ADA27
:101C2000C4F120060200E04001FA06F3E140184347
:101C3000B24015430EE0342C13DCC6F1200445EA13
:101C400040056D0820FA06F2154321FA06F0A1407E
:101C50000D43002175F1004250F1000051EB0C01E1
:101C6000F0BD00205FEA0C01F0BDCFB992185B41D6
:101C7000B3FA83F704BFB2FA82F6BF190B3FB7F18C
:101C800020062FBF02FA06F3BB40C7F1200622FA56
:101C900006F638BF3343BA401CB1E419641E33E77B
:101CA0007F4231F00041B1FA81F404BFB0FA80F60E
:101CB000A4190B3CB4F120062FBF00FA06F1A14095
:101CC000C4F1200620FA06F638BF3143A0403C1B81
:101CD0001AE7AC421ABF05EA1357AF4212E050EAC6
:101CE00041061CBF52EA4306BFE750EA41073046AF
:101CF00061461CBF41EA0551F0BD52EA430C08BFE2
:101D0000C143F0BD00204FF4001616EB410F98BF01
:101D100016EB430F08BF16EB410F24BFC14305E08C
:101D200016EB430F0CBF61464CEA0551F0BD0000B5
:101D3000400D491840EA81200CD2490DA1F580617F
:101D4000491C40F0004005DBD1F11F0154BFC840E1
:101D5000C017704700207047014648B1B0FA80F1C3
:101D60008840C91CC1F58461090501EBD0214005FB
:101D70007047012000F0B6B870470000841A71EB7C
:101D8000030604D26E40001BB141121973414FF497
:101D9000001C1CEB410F34BF7CEB430682E00C0DB2
:101DA000A4EB1356362E7BDC012E45EAC32341DC1F
:101DB00043EA525312BFD20292025B08240545EA5D
:101DC000C12141EA5051D2EBC020994125D407D11D
:101DD000B0FA80F610FA06F162D00020203608E052
:101DE000B1FA81F6B140C6F1200220FA02F21143A5
:101DF000B0404FEAF474B4EB465434F001064FEAB5
:101E000074040AD8D6F50016760D04F00044F040AC
:101E100061FA06F25040F1404840C00A40EA4150A1
:101E200021F0004128BF5FEA500550F1000044EB6B
:101E3000D12135E0DB0A45EAC121C90AB6F1200506
:101E40000EDD42EA0242120CC5F1200603FA06F644
:101E5000EB4042EA06056D42984161F100010DE058
:101E600062FA06F5F240554063FA06FC82EA0C027B
:101E7000F3405A406D42904161EB030111F4801F21
:101E800005D1641E620502D06D004041494121F434
:101E90008011430875F1004350F1000041EB0451FB
:101EA00070BC70471CEB410F15D223F0004352EA7F
:101EB00043060BD04FEA4C0CBCEB410F04D80C0D81
:101EC000661E342EB7DDEBE7801A994150EA4106D1
:101ED00008BF0021E4E708BF1CEB430F28BF6FF0E9
:101EE0000001DDE780B500F007F8024A1100182074
:101EF000ABBEFBE72600020010B500F052F802006E
:101F00000023DB4300241068984203D01100022014
:101F1000ABBE14605068984203D0111D0220ABBEC6
:101F2000546010BDF0B583B0040000F03AF8A10091
:101F300047183D680026F643B54216D100F01AF85E
:101F40003D68B5420FD100BF09A00090002C01D11F
:101F5000002000E004200190032002906946012047
:101F6000ABBE05003D6000F014F8280003B0F0BDE2
:101F70003A7474000C480121BFF35F8FD0E84F3FE3
:101F8000C0E8421F002AF9D1BFF35F8F002BF3D1C5
:101F900070470548BFF35F8F00210170BFF35F8F6B
:101FA0007047024870470000140B0020F002002028
:101FB000DFF8201A0860DFF81C1A0968012930D1FF
:101FC0005FF40011DFF8102A1160DFF8101ADFF853
:101FD000102A1160DFF80C1ADFF80C2A11600021BA
:101FE000DFF8082A11602F21DFF8042A11605FF062
:101FF0002051DFF8002A11605FF01051DFF8F82956
:1020000011605FF00151DFF8F42911605FF00851B1
:10201000DFF8EC2911605FF00451DFF8582B1160F4
:1020200031E002282FD15FF40011DFF8AC291160F4
:10203000DFF8D019DFF8A8291160DFF8CC19DFF834
:10204000A82911600021DFF8A42911600B21DFF815
:10205000A0291160DFF8B419DFF898291160DFF8C2
:10206000B019DFF894291160DFF8C41ADFF88C2961
:102070001160DFF8C01ADFF888291160DFF8B81A9C
:10208000DFF8F02A1160704770B504000D001600EB
:102090002800C0B2652801DB642106E02900C9B22E
:1020A000FF204143642091FBF0F13200C9B22000CF
:1020B00080B200F0B8F8002801D0012002E000F062
:1020C000B3FC002070BD80B500F038FD00F040F991
:1020D000002002BD80B5DFF81C090168DFF80009A7
:1020E000006800F08BFE002877D0DFF88C0A0068CB
:1020F00000285ED0DFF8E808006800F075FE0028D0
:10210000F8D1DFF8F0080168DFF8D408006800F0C3
:102110008EFEDFF8680A0068DFF8641A8860DFF86E
:10212000580A0068B0F5803F03D2DFF84C0A006817
:1021300001E04FF6FF70DFF8481A0861DFF8401A37
:10214000DFF89C08006800F017FE0121DFF8900816
:10215000006800F03BFEDFF8200A0068B0F5803F21
:1021600003D2DFF8140A006801E04FF6FF70DFF8D1
:102170000C1A096801EB4000DFF8001A0860DFF86C
:10218000F8090068B0F5803F03D2DFF8EC09006879
:1021900001E04FF6FF70DFF8E0190968081ADFF870
:1021A000D81908600121DFF83808006800F00EFE39
:1021B00013E00021DFF82808006800F007FEDFF8D0
:1021C00034080168DFF81808006800F030FE0021CC
:1021D000DFF8A809006801F0A9FB01BD80B5FFF791
:1021E00079FF01BD80B5FFF775FF01BD80B5022104
:1021F000DFF8E00901F07AFD002813D0DFF8D407FA
:102200000068022806D101F092FB010089B2042087
:1022100001F0A1FD01F08BFB010089B2DFF8B409E8
:1022200001F040FD01BD2DE9F84F04000D0016003E
:102230005FF0000800F0FCFA00F0C3F800F07FFA4D
:102240000121022000F0CFF8814619EB0809AF21E7
:10225000042000F0C8F882461AEB090AAF20DFF824
:10226000781908708121052000F0BDF883461BEB2A
:102270000A0B0421062000F0B6F8070017EB0B0745
:102280002800C0B200F076F8DFF850090068022894
:1022900022D10121082000F0A6F8804618EB07089B
:1022A0000121092000F09FF8814619EB0809C0219F
:1022B0000E2000F098F882461AEB090A002114203B
:1022C00000F091F883461BEB0A0B0021152000F06B
:1022D0008AF810EB0B0007009E21022000F083F823
:1022E000814619EB070900210A2000F07CF880469E
:1022F00018EB0908DFF8E4080068022806D004217A
:102300000E2000F070F810EB080080460021272016
:1023100000F069F8070017EB08070F211F2000F0F5
:1023200062F8814619EB07090A211A2000F05BF8D0
:1023300082461AEB090A0A211B2000F054F8834652
:102340001BEB0A0B300000F026FA5846BDE8F28F6E
:1023500038B5002400F035F80121022000F043F8E0
:1023600005002D1900F0FDFA00F014FA00F050FA03
:10237000280032BD70B5040000252000C0B2E72857
:102380000FDB14F11901C9B2202000F02CF806006F
:10239000761914F11901C9B2212000F024F880192E
:1023A0000EE014F11901C9B2202000F01CF806005B
:1023B000761914F11901C9B2212000F014F880191E
:1023C00070BD80B500221021DFF8140801F03CFD3B
:1023D00044F6FF7000F01EFB01221021DFF8000818
:1023E00001F032FD01BD70B504000D0000265FF460
:1023F0009610DFF8F01708605FF40031DFF8E807A7
:1024000001F06CFE00280BD0DFF8D8070068411EF1
:10241000DFF8D02711600028EED101F0FDFA8AE044
:102420000121DFF8C40701F000FE4FF48050DFF80F
:10243000B4170860DFF8B417DFF8AC0701F036FE18
:1024400000280BD1DFF89C070068411EDFF89427B5
:1024500011600028EED101F0DFFA6CE00022942137
:10246000DFF8840701F0FFFD4FF48050DFF87417A8
:102470000860DFF87C17DFF8700701F017FE00280E
:102480000BD1DFF860070068411EDFF858271160A4
:102490000028EED101F0C0FA4DE02100C9B2DFF80A
:1024A000480701F0FCFD4FF48050DFF83817086052
:1024B000DFF84017DFF8300701F0F8FD00280BD1F6
:1024C000DFF820070068411EDFF818271160002898
:1024D000EED101F0A1FA2EE02900C9B2DFF8080719
:1024E00001F0DDFD5FF49610DFF8F8160860DFF804
:1024F0000817DFF8F40601F0F1FD00280BD1DFF832
:10250000E4060068411EDFF8DC2611600028EED1E9
:1025100001F082FAEBE70121DFF8CC0601F094FD2F
:102520002000C0B200F008F82900C9B2884201D1E9
:10253000002000E0012070BD70B5040000255FF4AC
:102540009610DFF8A01608605FF40031DFF89806F7
:1025500001F0C4FD00280BD0DFF888060068411E9A
:10256000DFF8802611600028EED101F055FAE5E091
:102570000121DFF8740601F058FD4FF48050DFF8B8
:1025800064160860DFF86416DFF85C0601F08EFD63
:1025900000280BD1DFF84C060068411EDFF8442606
:1025A00011600028EED101F037FAC7E00022942133
:1025B000DFF8340601F057FD4FF48050DFF82416A1
:1025C0000860DFF82C16DFF8200601F06FFD002808
:1025D0000BD1DFF810060068411EDFF808261160F5
:1025E0000028EED101F018FAA8E02100C9B2DFF806
:1025F000F80501F054FD4FF48050DFF8E81508604D
:10260000DFF8F415DFF8E00501F068FD00280BD1D4
:10261000DFF8D0050068411EDFF8C82511600028EA
:10262000EED101F0F9F989E00121DFF8BC0501F0F4
:10263000FCFC4FF48050DFF8AC150860DFF8AC15F7
:10264000DFF8A40501F032FD00280BD1DFF8940576
:102650000068411EDFF88C2511600028EED101F0E2
:10266000DBF96BE001229421DFF87C0501F0FBFC33
:102670004FF48050DFF86C150860DFF88015DFF844
:10268000680501F02BFD00280BD1DFF85805006824
:10269000411EDFF8502511600028EED101F0BCF991
:1026A0004CE00021DFF8400501F0EAFCDFF85005BE
:1026B00000880121DFF8300501F0C6FC4FF480509E
:1026C000DFF820150860DFF83C15DFF81C0501F085
:1026D00005FD00280BD1DFF80C050068411EDFF86E
:1026E000042511600028EED101F096F926E0DFF80C
:1026F000F80401F0D8FC06004FF48050DFF8E41431
:102700000860DFF8E404008880050BD5DFF8D40406
:102710000068411EDFF8CC2411600028F1D101F0DF
:102720007BF90BE00121DFF8C00401F0A9FCDFF820
:10273000D814DFF8B40401F0F3FC300070BDF8B534
:1027400001215FF4001001F09FFDDFF89C0401F00F
:10275000B5FB0020ADF804004BF6FF70ADF80600A5
:102760003320ADF808004FF48060ADF80A004FF454
:102770008040ADF80C00DFF8940400900121DFF8F0
:10278000680401F043FC6946DFF85C0401F0C2FB19
:1027900005B000BD704710B588B0040001214FF4AA
:1027A000004001F071FDDFF82C0401F037F90294CC
:1027B0000020ADF802000020ADF804000020ADF8C4
:1027C0000C004FF40070ADF800004FF40070ADF84D
:1027D00006006946DFF8FC0301F06BF9DFF8FC0343
:1027E0000068022812D101215FF0005001F04CFD79
:1027F00000200490002005900020079004A90020EC
:1028000001F07EFA0121002001F091FA08B010BD1C
:1028100080B50021DFF8BC0301F033FADFF8B40320
:1028200001F0FCF800214FF4004001F02DFD01BD46
:10283000E0B50121082001F007FD102000900120E3
:102840008DF8040002208DF8050000208DF80600A8
:1028500000208DF807006946DFF8840301F08EFA46
:102860000121072001F0F0FC4FF4107000900220CD
:102870008DF8040002208DF8050001208DF8060077
:1028800000208DF807006946DFF8840301F076FA2E
:1028900004220621DFF8780301F0DEFA0422092180
:1028A000DFF86C0301F0D8FA4FF4A050009002203A
:1028B0008DF8040002208DF8050000208DF8060038
:1028C00000208DF807006946DFF8480301F056FA4A
:1028D00006220421DFF8400301F0BEFA06220A2195
:1028E000DFF8300301F0B8FA3A48006802280DD04A
:1028F000102000906946DFF8200301F03FFA06221D
:102900000C21DFF8100301F0A7FA10E001210120EB
:1029100001F09AFC1020009003208DF804000020A4
:102920008DF807006946DFF8F00201F027FA8020F1
:10293000009002208DF8040002208DF80500002090
:102940008DF8060000208DF807006946DFF8C40204
:1029500001F014FA06220721DFF8B80201F07CFA30
:1029600007BDE0B54FF4A050009000208DF80400A2
:1029700000208DF8050000208DF8060000208DF85D
:1029800007006946DFF88C0201F0F8F9102000908A
:102990006946DFF8840201F0F1F900220421DFF832
:1029A000780201F059FA00220A219A4801F054FAFB
:1029B00000220C21974801F04FFA802000906946D0
:1029C000944801F0DBF906220721924801F044FA0D
:1029D00007BD00001C00002020000020B86002405D
:1029E000240000200C3C004028000020D40A0020D5
:1029F0002C0000203000002034000020380000208F
:102A00003C000020106002400C74004020000010C8
:102A10001000001001B40098002803D00098401E58
:102A20000090F8E701B0704780B56C480068012855
:102A30005CD101217948006801F006FC002178484A
:102A4000006800F0C3F97648006800F0F3F87548B4
:102A500000684B4908607448006849494860002094
:102A60004749886040204649C8604FF6FE70444997
:102A700008610020424948614FF480604049886104
:102A80004FF400603E49C8614FF400503C49086271
:102A900000203B4948625FF40030394988620020D9
:102AA0003749C8620020364908630020344948632A
:102AB00000203349886332495948006800F05CF9C6
:102AC000012210215648006800F0C1F957480068FB
:102AD0008DF8000000208DF8010000208DF8020024
:102AE00001208DF80300684601F029FC3B4800688E
:102AF000012805D101220221364801F0D5F815E060
:102B000000F040F801227121324801F0D9F8332059
:102B10008DF8000000208DF8010000208DF80200E3
:102B200001208DF80300684601F009FC01BD00009A
:102B300001008010080000100400801080B53B48A0
:102B400000688DF8000000208DF8010000208DF84D
:102B5000020000208DF80300684601F0F0FB002120
:102B60002F48006800F032F92D48006800F062F844
:102B700001BD00004000002014000020D00A002009
:102B80004C0A002080B586B00121294801F05CFB89
:102B900001215FF0005001F077FB1020009003202E
:102BA0008DF8040000208DF8070069461A4801F0EE
:102BB000E5F800200290002003900020059002A973
:102BC000002001F09DF80121002001F0B0F807B0CD
:102BD00000BD0000003C0040100B00201C00002045
:102BE000000C0240180000200054004001000300C7
:102BF000820007008000070004000010020000109F
:102C0000185400404000001000040010A08601008D
:102C100000040240000802400000024020000020A2
:102C200024000020D40A0020280000202C000020CE
:102C3000010020000168490849000160002101608D
:102C400000214160002181600021C16000210161FB
:102C500021214161DFF83C12884204D13D21DFF897
:102C60003822116087E0DFF83412884205D14FF432
:102C70007461DFF8242211607DE0DFF824128842BD
:102C800005D15FF47411DFF81022116073E0DFF8F2
:102C90001412884205D15FF07461DFF8FC211160E5
:102CA00069E0DFF80412884205D1DFF80012DFF88E
:102CB000002211605FE0DFF8FC11884205D1DFF8E7
:102CC000F811DFF8EC21116055E0DFF8F0118842CF
:102CD00005D1DFF8EC11DFF8D82111604BE0DFF807
:102CE000E411884205D15FF03D51DFF8C421116045
:102CF00041E0DFF8D411884204D13D21DFF8CC2136
:102D0000116038E0DFF8C811884205D14FF47461D2
:102D1000DFF8B82111602EE0DFF8B811884205D144
:102D20005FF47411DFF8A421116024E0DFF8A8112A
:102D3000884204D15FF07461644A11601BE0674906
:102D4000884203D15949664A116014E065498842B6
:102D500003D15949624A11600DE06349884203D1A9
:102D600057495F4A116006E06049884203D15FF02D
:102D70003D515B4A1160704770B4002304685C4A9F
:102D800014400D68CA6815434A6915438A6915439A
:102D9000CA6915430A6A15434A6A15438A6A154384
:102DA0004A6B15438A6B15432C4304604569ED0853
:102DB000ED00CE6A0A6B1643354345610A694260ED
:102DC0004A6882608A68C26070BC70470A00D2B2EA
:102DD000002A04D0026852F00102026003E0026897
:102DE0005208520002607047010000220868C007C4
:102DF00001D5012000E00020C0B2704730B40200CD
:102E000000230020304CA24201D23A4C00E03A4C60
:102E10008D0001D5656800E02568384805400D4201
:102E200001D0012000E00020C0B230BC7047264A2B
:102E3000904201D22F4A00E02F4A8B0003D52F4B3E
:102E40000B40D36002E02D4B0B409360704710B4F1
:102E50000B060CD51300DBB2002B04D0436953F0F2
:102E60008003436103E0436933F0800343618029B9
:102E70000ED01300DBB2002B05D0046811F01E0346
:102E80001C43046004E0046811F01E039C430460CA
:102E900010BC704710600240086002402860024089
:102EA0004060024058600240706002403D000020D7
:102EB0000C60024088600240400F0020A060024089
:102EC00000003D20B86002401064024008640240E7
:102ED000286402404064024058640240706402402A
:102EE0000C64024088640240A0640240B86402405E
:102EF0003F801CF000600240006402407D0F7D0FA7
:102F00007CB5002500264020DFF8B41A08700020A8
:102F1000DFF8AC1A48700320DFF8A41A887000208C
:102F2000DFF89C1AC8700020DFF8941A0871DFF8E7
:102F3000900A01F043FA2020DFF8881A0870012077
:102F4000DFF8801A48700C20DFF8781A8870DFF8F4
:102F5000740A01F04BFA1E2001F0DAFD01220F2164
:102F6000684601F084FA9DF800003B2801D001F08A
:102F7000E3FD4FF4FA70DFF8501A08602800C0B281
:102F8000002837D1DFF8400A0068002832D0042238
:102F90002921DFF8380A01F06AFADFF8300A90F9DF
:102FA000000040B2002806D5DFF8200A90F9004062
:102FB00064B2644202E0DFF8140A0478DFF80C0A15
:102FC00090F9020040B2002806D5DFF8000A90F917
:102FD000026076B2764202E0DFF8F00986782000DF
:102FE000C0B2102803DA3000C0B21028C6DB0120BE
:102FF0000500C3E72800C0B2002810D0002001F06F
:1030000012FE002001F093FE0028FAD0002001F00B
:103010008EFE0128FAD0002001F011FE01E001F03F
:103020008BFD73BDE0B501210D2001F00DF92020CD
:10303000009001208DF8040000208DF8060000208B
:103040008DF8070002208DF805006946DFF8800939
:1030500000F094FE2021DFF8780900F0F3FE012053
:10306000009001208DF8040000208DF8060000205B
:103070008DF8070002208DF805006946DFF8540935
:1030800000F07CFE4FF40070009000208DF80400EA
:1030900000208DF8060000208DF8070002208DF832
:1030A00005006946DFF8300900F068FE0121DFF80D
:1030B000240900F0C7FE012001F02AFD4FF4007141
:1030C000DFF8140900F0AEFE002801D101F034FD54
:1030D0004FF48060009000208DF8040000208DF8EF
:1030E000060001208DF8070002208DF805006946D2
:1030F000DFF8E40800F042FE012001F009FD4FF482
:103100008061DFF8D40800F08DFE002801D101F0C5
:1031100013FD0121DFF8BC0800F092FE4FF4C0500F
:10312000009000208DF8040000208DF8060001209A
:103130008DF8070002208DF805006946DFF8980831
:1031400000F01CFE4FF40070009001208DF8040088
:1031500000208DF8060001208DF8070002208DF870
:1031600005006946DFF8700800F008FE4FF40071B2
:10317000DFF8640800F066FE012001F0C9FC4FF49E
:103180000061DFF8540800F04DFE002807D04FF42E
:103190008051DFF8440800F045FE002801D101F01D
:1031A000CBFC4FF48050009000208DF804000020EC
:1031B0008DF8060001208DF8070002208DF805002B
:1031C0006946DFF8140800F0D9FD4FF40060009064
:1031D00001208DF8040000208DF8060001208DF8F4
:1031E000070002208DF805006946DFF8EC0700F0C3
:1031F000C5FD4FF40061DFF8E00700F023FE012079
:1032000001F086FC4FF48051DFF8CC0700F00AFE95
:10321000002801D101F090FC4FF4006000900020E4
:103220008DF8040000208DF8060001208DF80700BD
:1032300002208DF805006946DFF89C0700F09EFD2E
:103240004FF48050009001208DF8040000208DF88C
:10325000060001208DF8070002208DF80500694660
:10326000DFF8740700F08AFD4FF48051DFF868073B
:1032700000F0E8FD012001F04BFC4FF40061DFF8A5
:10328000580700F0CFFD002801D101F055FC4FF4A4
:103290000070009001208DF8040000208DF80600D9
:1032A00000208DF8070002208DF805006946DFF840
:1032B000280700F063FD4FF40071DFF81C0700F0F1
:1032C000BFFD002001F0AFFC002001F030FD002820
:1032D000FAD0002001F02BFD0028FAD1002001F0E7
:1032E000AEFC4FF40071DFF8F00600F0ABFD2021DA
:1032F000DFF8DC0600F0A4FD4FF48061DFF8D806AB
:1033000000F090FD002801D001F016FC4FF4C050F1
:10331000009000208DF8040000208DF806000220A7
:103320008DF8070002208DF805006946DFF8A80631
:1033300000F024FD4FF40070009001208DF804008F
:1033400000208DF8060001208DF8070002208DF87E
:1033500005006946DFF8800600F010FD4FF40071AB
:10336000DFF8740600F06CFD012001F0D1FB4FF492
:103370000061DFF8640600F055FD002807D04FF427
:103380008051DFF8540600F04DFD002801D101F016
:10339000D3FB4FF49050009000208DF804000020E3
:1033A0008DF8060002208DF8070002208DF8050038
:1033B0006946DFF8240600F0E1FC4FF4006000905D
:1033C00001208DF8040000208DF8060001208DF802
:1033D000070002208DF805006946DFF8FC0500F0C3
:1033E000CDFC4FF40061DFF8F00500F029FD01206D
:1033F00001F08EFB4FF40071DFF8DC0500F012FDE8
:10340000002807D04FF48051DFF8CC0500F00AFD0A
:10341000002801D101F090FB4FF4206000900020C3
:103420008DF8040000208DF8060002208DF80700BA
:1034300002208DF805006946DFF89C0500F09EFC2F
:103440004FF48050009001208DF8040000208DF88A
:10345000060001208DF8070002208DF8050069465E
:10346000DFF8740500F08AFC4FF48051DFF868053E
:1034700000F0E6FC012001F04BFB4FF40071DFF897
:10348000580500F0CFFC002807D04FF40061DFF8AA
:10349000480500F0C7FC002801D101F04DFB4FF4B6
:1034A000C050009000208DF8040000208DF8060028
:1034B00002208DF8070002208DF805006946DFF82C
:1034C000180500F05BFC4FF40070009001208DF8AF
:1034D000040000208DF8060001208DF8070002206E
:1034E0008DF805006946DFF8F00400F047FC4FF462
:1034F0000071DFF8E40400F0A5FC07BD3EB5002430
:1035000001214FF4807000F0CFFE01214FF40070D4
:1035100000F0CAFE0120FEF74BFD4BF6803257212A
:103520000220FEF7B1FD002801D001F005FB0020CC
:10353000DFF8A81408700020DFF8A41408605FF416
:103540004030DFF89C1448600020DFF89414886055
:103550004FF47060DFF88814C860DFF8840401F06D
:103560003EFCDFF8800401F02BFC5FF00070DFF818
:10357000741408600020DFF86C1408710020DFF874
:10358000641448710020DFF85C1488600020DFF8C4
:10359000541408610120DFF84C140875DFF8441456
:1035A000DFF8440401F0E6FBDFF83814DFF83C04F0
:1035B00001F0E0FB0420009002208DF805000320BC
:1035C0008DF8040000208DF807006946DFF8080434
:1035D00000F0D4FB082000906946DFF8FC0300F0FF
:1035E000CDFB0020DFF8081408800020DFF8041469
:1035F00008800025032301220221DFF8EC0301F0FB
:103600000EFC032301220321DFF8E00301F007FC95
:103610000121DFF8D40301F0F4FB0121DFF8CC0332
:1036200001F0EFFB4FF4FA70DFF89C1308602800FC
:10363000C0B2002865D1DFF890030068002860D090
:10364000DFF8A40301F079FC0221DFF89C0301F00C
:1036500085FC0028F8D0DFF8900301F073FCDFF858
:1036600098130880DFF8840301F067FC0221DFF87B
:103670007C0301F073FC0028F8D0DFF8700301F040
:1036800061FCDFF878130880DFF86C030088972866
:1036900011DBDFF8680300880A280CDADFF8500332
:1036A0000088B0F5FA7F06D0DFF844030088401C9C
:1036B000DFF83C130880DFF8400300880A2811DA9D
:1036C000DFF83803008897280CDBDFF82803008830
:1036D000B0F5FA7F06D0DFF81C030088401CDFF845
:1036E00014130880DFF808030088B0F5FA7F9ED134
:1036F000DFF800030088B0F5FA7F98D101200500BB
:1037000095E70021B84801F07CFB0021B74801F0A3
:1037100078FB2800C0B2002801D101F00DFAFEF7B5
:10372000D2FC0220FEF744FC4BF6803264210220DA
:10373000FEF7AAFC002801D001F0FEF90120A749FC
:1037400008700020AA4908800020AA4908800024A7
:103750000121A54801F055FB0121A44801F051FBCE
:103760004FF4FA70984908602000C0B2002850D188
:103770009548006800284CD09B4801F0DEFB0221F0
:10378000994801F0EBFB0028F9D0974801F0DAFBEB
:1037900099490880954801F0D0FB0221934801F037
:1037A000DDFB0028F9D0914801F0CCFB934908805B
:1037B00091480088AB280DDB90480088AB2809DBD6
:1037C0008B480088B0F5FA7F04D089480088401CF7
:1037D00087490880884800880A280DDA87480088C9
:1037E0000A2809DA83480088B0F5FA7F04D08148B6
:1037F0000088401C7F4908807D480088B0F5FA7F2A
:10380000B2D17C480088B0F5FA7FADD10120040028
:10381000AAE72000C0B2002801D101F08DF90020F4
:1038200001F001FA002001F082FA0028FAD000200D
:1038300001F005FA37BD38B586B000240025012116
:103840004FF4804000F020FD0121062000F0FCFC38
:1038500002208DF8040000208DF8060001208DF86C
:10386000070001208DF805004FF480600090694644
:10387000634800F083FA05220A21614800F0ECFA5F
:10388000082000906946534800F078FA0522032189
:10389000504800F0E1FA5B4800F0C0F84FF47A407D
:1038A00004901020ADF80A000020ADF80C000020B4
:1038B000ADF814004FF44070ADF808000020ADF8EA
:1038C0000E0002A94F4800F0F4F801214D4800F025
:1038D000D8F90A2001F01CF94FF4FA703A4908604F
:1038E0002800C0B21E2819DA37480068002815D011
:1038F0000121444800F0FAF9002803D13248006859
:103900000028F5D13F4800F0CBF90400200080B238
:103910004FF6FF718842E3D16D1CE1E72800C0B289
:103920001E2801D001F008F907B030BD7047002112
:103930002A48007800282DD133480088002814D167
:103940003248334A128830F81200314A1288521C29
:103950002F4B1A802E4A1288302A02D100212C4A7D
:1039600011800121284A118027E02848294A12881D
:1039700030F81200274A1288521C264B1A80254A1A
:103980001288302A02D10021224A118000211E4AC9
:10399000118012E01D481E4A128830F91200B0F55D
:1039A00000401B4A1288521C194B1A80184A128870
:1039B000302A02D10021164A118080B270470000DF
:1039C000B00A0020CC0A0020C80A0020B80A002053
:1039D000000C024000080240000002400F0B0020D3
:1039E000A00A0020880A0020002001400021014098
:1039F000040B0020020B0020FE0A0020000B002018
:103A00000004024000380040080B00203488000801
:103A1000060B0020F8020020FEE7000010B50400AD
:103A2000894884420AD101214FF4805000F05CFCA7
:103A300000214FF4805000F057FC1AE08348844284
:103A40000AD101214FF4804000F03EFC00214FF4E8
:103A5000804000F039FC0CE07D48844209D101210E
:103A60004FF4004000F030FC00214FF4004000F023
:103A70002BFC10BD30B40023048814F441540D888D
:103A80004A8815438A881543CA8815430A8915430D
:103A90004A8915438A891543CA8915432C430480F2
:103AA000858B4FF2FF72154085830A8A028230BCF3
:103AB00070472DE9F84F5FF0000E5FF002095FF0EC
:103AC000000A012200270023002400250026B0F868
:103AD0001C804FF2400C1CEA0808A0F81C805FF024
:103AE000020CA0F820C0B0F81C80D1F808C0BCF1CE
:103AF000020F04D15FF0000E5FF0020C70E0B1F82D
:103B000004C0BCF1000F03D15FF0010C624602E07B
:103B10005FF0020C6246DFF83CC1DCF800C05FEAEF
:103B20000C2C09D5DFF82CC1DCF800C03CF4000CEB
:103B3000DFF820E1CEF800C0DFF81CC1DCF800C0DF
:103B4000CCF3881C6546DFF810C1DCF800C0CCF36C
:103B5000027C6646DFF804C1DCF800C01CF03F0CB4
:103B60006446DFF8FCC0BCFBF4FC05FB0CFCBCFBB2
:103B7000F6FC6346B1F806C0BCF5007F0FD19E4647
:103B80005FEA1E2E5FF00A0C0CFB0EFED1F808C097
:103B9000BEFBFCFC1CF1050C1FFA8CFC12E09446E9
:103BA0001FFA8CFC5FEA4C1CB3FBFCFE5FF00A0CB6
:103BB0000CFB0EFED1F808C0BEFBFCFC1CF1050C92
:103BC0001FFA8CFC0A27BCFBF7F717F0010EF4462E
:103BD0001FFA8CFCB7EB0C0C5FEA5C0C5FEA0E2E54
:103BE000E1461FFA89F9B9F1020F05DBE1461FFA38
:103BF00089F9B9F5807F05DB5FF00209CC465FF0FB
:103C00000009CE46B1F8069059EA0E0959EA0C09A6
:103C1000A0F82090CDF80080B1F80080B1F80290B3
:103C2000B1F804B0B1F80CA05AEA0B0A5AEA090A32
:103C30005AEA080A5AF4006ADDF800805AEA0808CD
:103C4000A0F81C80BDE8F18F003001400038004032
:103C5000003C0040083802408438024004380240EA
:103C600000127A000A00D2B2002A04D0028852F070
:103C70004002028004E003884FF6BF7213400380C5
:103C800070470A00D2B2002A04D0828B52F48062BC
:103C9000828304E0838B4FF6FF32134083837047A7
:103CA00080897047818170471300DBB2002B03D0FD
:103CB00083880B43838002E083888B438380704733
:103CC000F0B4002600240F00FFB23F09FFB2012527
:103CD000BD401300DBB2002B03D083882B438380CD
:103CE00002E08388AB438380F0BC7047020000236E
:103CF0001089084201D0012000E00020C0B27047C6
:103D000070B4002300251C4A146840F6FE728240FD
:103D100094430E684A6816438A681643CA68164375
:103D200016FA00F21443144A146070BC70470A007B
:103D3000D2B2002A07D0104A1268012383401A43E6
:103D40000D4B1A6006E00C4A1268012383409A4327
:103D5000094B1A60704781B000220092064A009217
:103D6000009B10F10802D31800930A0092B2009B46
:103D70001A6001B07047000000740040F0B40022E7
:103D8000002300240025102D4AD20122AA4013004E
:103D90000A681A4014009C4240D1066803272A0092
:103DA000D2B252009740BE43066006680F792A00DF
:103DB000D2B2520097403E4306600A79012A02D0EF
:103DC0000A79022A1AD1866803272A00D2B2520041
:103DD0009740BE43866086684F792A00D2B252006F
:103DE00097403E43866042680126AE40B24342603F
:103DF00042688E79AE40B6B232434260C66803274D
:103E00002A00D2B252009740BE43C660C668CF793E
:103E10002A00D2B2520097403E43C6606D1CB2E702
:103E2000F0BC704710B40200002310690C00A4B26B
:103E3000204201D0012000E00020C0B210BC704739
:103E400001837047418370471300DBB2002B01D020
:103E5000018300E041837047F0B500240025130082
:103E6000DBB211F00706F6B2B60013FA06F60B0045
:103E70009BB2DB1000EB83070B009BB2DB1000EB67
:103E80008303D3F820C05FF00F0E11F00703DBB2FD
:103E90009B001EFA03FE3CEA0E0CC7F820C00B0084
:103EA0009BB2DB1000EB83031B6A33430F00BFB2EE
:103EB000FF1000EB87073B62F0BD000010B5040067
:103EC0004C4884420AD101215FF4001000F0FCF953
:103ED00000215FF4001000F0F7F91AE04648844230
:103EE0000AD101215FF4800000F0EEF900215FF4B7
:103EF000800000F0E9F90CE04048844209D101213A
:103F00005FF4000000F0E0F900215FF4000000F031
:103F1000DBF910BD2DE9FF4705000E0000275FF01B
:103F200000085FF00409DFF8D8A0AC884FF6C07035
:103F30000440684600F0FCF802993248B1FBF0F208
:103F40001443AC802B884FF6FE7003402B80002377
:103F50003068DFF8B4C060450DD230684000B1FB76
:103F6000F0F4200080B2042801DA04200400234386
:103F7000501C288423E0F0884BF6FF74A04205D142
:103F8000346803204443B1FBF4F406E0346819209C
:103F90004443B1FBF4F454F48044200501D154F0BF
:103FA000010454F4004003431700BFB24FF496706D
:103FB00047434FF47A7097FBF0F0401C2884AB83A2
:103FC000288850F0010028802F884FF6F5300740F0
:103FD000B6F804C0708950EA0C0C5CEA07072F8021
:103FE000B6F80CC0308950EA0C0CA5F808C0BDE842
:103FF000FF8700000054004000580040005C004073
:1040000000127A0040420F00A18601000A00D2B2DD
:10401000002A04D0028852F00102028004E00388E2
:104020004FF6FE721340038070470A00D2B2002A96
:1040300004D0028852F48072028004E003884FF6B4
:10404000FF621340038070470A00D2B2002A04D0F6
:10405000028852F40072028004E003884FF6FF5297
:104060001340038070471300DBB2002B02D051F0E5
:10407000010101E011F0FE010B00DBB20382704789
:104080000A00D2B2002A04D0028852F48062028070
:1040900004E003884FF6FF321340038070470A00A4
:1040A000D2B202827047008AC0B27047F0B50200F7
:1040B0000020002500270023968AB2F818C05FEA86
:1040C0000C4C5CEA060424F07F4411EA040E8E4591
:1040D00001D1012000E00020C0B2F0BD82B002009A
:1040E0000023002001900020009000920800000FA3
:1040F000019021F07F410198002803D000981430EE
:10410000009003E0090C00981830009000980068B7
:10411000084201D0012000E00020C0B202B0704788
:1041200010B4002221F07F43DC43848210BC70472E
:104130002DE9F04F00220023002402250021022651
:10414000DFF8C4713F6817F00C07BC46BCF1000FE4
:1041500006D0BCF1040F07D0BCF1080F08D03AE03C
:10416000DFF8AC21026039E0DFF8A821026035E019
:10417000DFF898211268C2F380521100DFF88C2119
:10418000126812F03F02160000290CD0DFF88421DB
:10419000B2FBF6FCDFF874211268C2F3881202FB4E
:1041A0000CFC64460BE0DFF86821B2FBF6FCDFF89C
:1041B0005C211268C2F3881202FB0CFC6446DFF833
:1041C0004C211268C2F30142521C52001500B4FB8C
:1041D000F5F2026002E0DFF838210260DFF8282102
:1041E000126812F0F0021209DFF82CC11CF802C0AC
:1041F000D0F800E03EFA0CFEC0F804E0DFF808E179
:10420000DEF800E01EF4E05E5FEA9E2EDFF8088133
:1042100018F80E80D0F8049039FA08F9C0F8089020
:10422000DFF8E490D9F8009019F460495FEA593951
:10423000DFF8E4A01AF809A0D0F804B03BFA0AFBB2
:10424000C0F80CB0BDE8F08F0A00D2B2002A05D049
:10425000324A12680243314B1A6004E02F4A126856
:1042600082432E4B1A6070470A00D2B2002A05D052
:104270002B4A126802432A4B1A6004E0284A12684B
:104280008243274B1A6070470A00D2B2002A05D039
:10429000244A12680243234B1A6004E0214A126840
:1042A0008243204B1A6070470A00D2B2002A05D020
:1042B0001D4A126802431C4B1A6004E01A4A126835
:1042C0008243194B1A6070470A00D2B2002A05D007
:1042D000164A12680243154B1A6004E0134A12682A
:1042E0008243124B1A6070470A00D2B2002A05D0EE
:1042F0000F4A126802430E4B1A6004E00C4A12681F
:1043000082430B4B1A607047083802400438024061
:104310000024F40000127A004800002030380240E7
:1043200034380240403802404438024020380240CD
:10433000243802401C4901431C4A11607047F0B404
:10434000002200230F24C178002920D017490968D2
:1043500011F4E061D1F5E061090AD1F104052B0007
:10436000E4B20C4145789D408678264035432D01C6
:104370002A000F4D0678AA550125067816F01F066B
:10438000B5400C4E07787F1146F8275009E001210F
:10439000057815F01F05A940074D0678761145F8F8
:1043A0002610F0BC704700000000FA050CED00E09C
:1043B00000E400E000E100E080E100E01CB5040062
:1043C00000208DF8000000F077F861782078014334
:1043D000E078014320790143A07801438DF8001073
:1043E00001222021684600F021F813BD1CB504000D
:1043F00000208DF8000001222121684600F037F8E6
:104400009DF8000010F0D0008DF800009DF800101D
:10441000227860780243A078024311438DF800109F
:1044200001222121684600F001F813BD70B5040097
:104430000D001600300080B2022801DB55F0400567
:1044400008218648FFF7FEFC2800C0B200F0CDF836
:10445000300080B2002805D0207800F0C6F8761E23
:10446000641CF5E708217D48FFF7EAFC70BD70B5D4
:1044700004000D001600300080B2022802DB55F067
:10448000C00501E055F0800508217448FFF7DAFC0B
:104490002800C0B200F0A9F8300080B2002806D091
:1044A000002000F0A2F82070761E641CF4E70821BA
:1044B0006A48FFF7C5FC70BD00B587B001214FF415
:1044C0008050FFF7F1FE01210120FFF7BDFE012121
:1044D0001020FFF7B9FE01211020FFF7B5FE0121E2
:1044E0001020FFF7B1FE052205215D48FFF7B4FC5F
:1044F000052206215A48FFF7AFFC0522072158483C
:10450000FFF7AAFC02208DF8040000208DF80600B9
:1045100002208DF8070002208DF805002020009071
:1045200069464F48FFF72AFC8020009069464C48B6
:10453000FFF724FC4020009069464948FFF71EFC25
:104540004848FFF76BFA0020ADF808000020ADF8EE
:104550000C000020ADF80E000020ADF810004FF464
:104560000070ADF812000820ADF814000020ADF87E
:1045700016000720ADF818004FF48270ADF80A005D
:1045800002A93848FFF776FA01213648FFF76AFB9F
:104590000820009001208DF8040000208DF806000E
:1045A00002208DF8050069462C48FFF7E7FB08213B
:1045B0002A48FFF745FC0120009000208DF80400F8
:1045C00000208DF8060002208DF8050000208DF8EF
:1045D000070069462148FFF7D1FB02200090694699
:1045E0001E48FFF7CBFB07B000BD10B504004FF429
:1045F00080501D49086002211A48FFF777FB002808
:104600000AD119480068411E174A11600028F2D1EA
:1046100000F0A3FAC0B21EE02100C9B289B211486D
:10462000FFF740FB4FF480500F49086001210D480F
:10463000FFF75CFB00280AD10B480068411E0A4ABC
:1046400011600028F2D100F088FAC0B203E00548FA
:10465000FFF726FBC0B210BD0000000000100240B2
:1046600000000240003001404400002010B402006D
:1046700052B2002A0AD50A01DFF8F434040064B209
:1046800014F00F04234403F8042C05E00A01DFF8BA
:10469000E434040064B21A5510BC704710B504002D
:1046A000B4F1807F01D3012013E024F07F40401E4D
:1046B000DFF8C41408600F215FF0FF30FFF7D6FF6A
:1046C0000020DFF8B81408600720DFF8B414086091
:1046D000002010BD18B5FDB053A1DFF8A80400F00C
:1046E0004BFC0400002C05D1DFF89C0400F05AFCC0
:1046F000012096E0230079224FF4F27104A800F023
:1047000065FC200000F0A8FCDFF8800400F04AFC03
:104710000121002000F0B2FA002000F05FFA012031
:1047200000F05CFA022000F059FA032000F056FA7B
:104730006846FFF7FDFC01986421B0FBF1F0FFF73C
:10474000ADFF002000F0F3FA012867D1002000F04F
:104750006AFA012000F067FA022000F064FA0320F0
:1047600000F061FADFF82804006800280FD14FF448
:104770009670DFF820140860002000F0D8FA0128B5
:104780001DD1DFF8100400680028F5D117E04FF4C0
:104790009670DFF800140860002000F0C8FA0128C5
:1047A00004D1DFF8F00300680028F5D1002000F004
:1047B000BEFA002803D10020DFF8D8130860DFF824
:1047C000D4030068002826D1002000F038FA012028
:1047D00000F035FA022000F032FA032000F02FFA40
:1047E000002000F0A4FA0128FAD000F075FCFEF7D2
:1047F00087FBFEF717FCFEF781FEFFF71CF8002190
:10480000DFF88C0300F0DAFC002000F024FA0A2024
:1048100000F07EF9F8E700F009F801E000F006F892
:1048200000207EB010BD00007262000038B584B078
:1048300000240020DFF8601308700020DFF85C130C
:104840000870002000F0CAF9012000F0C7F902202A
:1048500000F0C4F9032000F0C1F96846FFF768FCD6
:1048600001986421B0FBF1F0FFF718FF002000F081
:10487000E6F9012000F0E3F9022000F0E0F903205E
:1048800000F0DDF9C5480078002834D1002000F0A0
:10489000E2F90A2000F03CF9012000F0DCF90A20DE
:1048A00000F036F9022000F0D6F90A2000F030F9C5
:1048B000032000F0D0F90A2000F02AF9641C20003F
:1048C000C0B21028DED100252800C0B2102810DAAE
:1048D000002000F0C0F9012000F0BDF9022000F036
:1048E000BAF9032000F0B7F90A2000F011F96D1CA5
:1048F000EAE70024C6E7002000F019FA0128FAD000
:104900000020A649087000F06DF800220021A4489C
:1049100000F048FE00220421A14800F043FE0022DE
:1049200008219F4800F03EFE00220C219C4800F028
:1049300039FE40209B49087000209A4948700720A2
:104940009849887000209749C870002095490871DF
:104950009448FFF733FD1E2000F0DAF801208E495D
:10496000087020209049087001208F4948700C2061
:104970008D4988708C48FFF739FD062229218B4824
:10498000FFF775FD894890F900008949087087484C
:1049900090F9020087490870844890F9040086491C
:1049A000087000F014F87D4800780028FBD0002043
:1049B00000F0BDF90128FAD000218048FFF752F934
:1049C0007F4800F094FF7E4801F046FD31E780B556
:1049D0007C4800907C4B7D4A0121794801F066FDBE
:1049E000002002BD80B58AB001210420FFF74CFCF5
:1049F00001210820FFF728FC4FF4704000900220AE
:104A00008DF8040000208DF8060000208DF80700C6
:104A100003208DF8050069466D48FFF7AFF90222C3
:104A20000C216B48FFF718FA02220D216848FFF7A6
:104A300013FA02220E216648FFF70EFA02220F2116
:104A40006348FFF709FA6348006840084FF4FA61C9
:104A5000B0FBF1F0401E6049088040F2CF70039037
:104A60005D480088ADF808000020ADF81000002077
:104A7000ADF80A0002A94A4800F006FC01214848A6
:104A800000F03AFC6020ADF814000120ADF81600EB
:104A90004FF47A7007900020ADF8200005A9404837
:104AA00000F048FC002200213D4800F07BFD082179
:104AB0003B4800F04DFD05A9394800F078FC002284
:104AC0000421374800F06EFD0821354800F04AFD0A
:104AD00005A9334800F0AFFC00220821304800F05F
:104AE00061FD08212E4800F048FD05A92C4800F082
:104AF000E5FC00220C212A4800F054FD082128483A
:104B000000F045FD0121264800F005FC0BB000BD7A
:104B100001B400981F4908601E4800680028FBD1B6
:104B200001B070471B480068002804D0194800688D
:104B3000401E18490860704780B50221582000F0D7
:104B4000DBFA5FF05531124800F038FB022000F02C
:104B500082F80520FFF7DCFFF8E780B50E48007803
:104B6000002803D1FFF7E8FF002000E0FEE702BDC8
:104B700018ED00E000E400E014E000E018E000E0E0
:104B800010E000E064890008608A00089489000849
:104B9000FCFF0F08C80A00200A0B00200B0B0020A6
:104BA00000080040B00A0020CC0A0020B80A00200B
:104BB0000C0B00200D0B00200E0B002000300140DC
:104BC000FC0200205C010020C00000208C000020BE
:104BD000000C024058000020FC0A00201CB5040014
:104BE00001215A482200D2B250F82200FFF72CFBD4
:104BF00057482100C9B230F81100009001208DF80B
:104C0000040000208DF8060001208DF80700022026
:104C10008DF8050069464F482200D2B250F82200B4
:104C2000FFF7ACF813BD4A490200D2B231F81210B6
:104C3000484A0300DBB252F82320118370474449ED
:104C40000200D2B231F81210424A0300DBB252F82D
:104C50002320518370473F490200D2B251F82210FD
:104C60004A693B490300DBB231F813104A40394925
:104C70000300DBB251F823104A61704730B585B0AC
:104C800004000D00012134482200D2B250F8220065
:104C9000FFF7DAFA01214FF48040FFF705FB00200F
:104CA0008DF8100000208DF813002C482100C9B2A7
:104CB00030F81100039003A929482200D2B250F81D
:104CC0002200FFF75BF82800C0B201282DD125484B
:104CD0002100C9B2415C24482200D2B2805C01F0BC
:104CE0004BFD22482100C9B230F81100019000208C
:104CF0008DF8080008208DF8090001208DF80A00C1
:104D000001A801F067FD1A482100C9B2405C8DF886
:104D100000000F208DF801000F208DF80200012007
:104D20008DF803006846FFF70AFB05B030BD10B5EB
:104D300004000A482100C9B230F8111008482200C6
:104D4000D2B250F82200FFF76DF810BDD88A0008E3
:104D5000408B000800000020508B0008B6120008AD
:104D600010000020C3130008C21300081A13000823
:104D7000F2150008F0B4002300244568734A15407A
:104D80000A790E6856EA0226354345608668704AFD
:104D900016400F69CA6817438A6817434A7957EA69
:104DA00042073E438660C76A37F470070A7D521E89
:104DB00014432200D2B257EA0257C762F0BC7047D0
:104DC00000210160002101710021417100218160F9
:104DD0000021C1600021016101210175704710B4FB
:104DE00000225C490B685C490B40046841680C4335
:104DF00081680C43C1680C43234356490B6010BCC7
:104E000070470A00D2B2002A04D0826852F0010230
:104E1000826003E0826852085200826070472DE988
:104E2000F041002600270C00E4B20A2C19DBC4680C
:104E30000725B1F10A0C5FF0030E1CFB0EFC15FAFE
:104E40000CFC34EA0C049E465FFA8EFEB1F10A05B2
:104E50005FF0030815FB08F51EFA05F52C43C46046
:104E600013E0046907255FF0030C11FB0CFC15FA35
:104E70000CFC34EA0C049E465FFA8EFE032511FBFF
:104E800005F51EFA05F52C4304611600F6B2072E4F
:104E900019DA466B5FF01F0C571E5FF0050E17FB0B
:104EA0000EF71CFA07F7BE438E465FFA8EFEB2F18C
:104EB000010C5FF005081CFB08FC1EFA0CFC5CEA08
:104EC0000606466337E01600F6B20D2E19DA066BB9
:104ED0005FF01F0CD71F5FF0050E17FB0EF71CFAD3
:104EE00007F7BE438E465FFA8EFEB2F1070C5FF005
:104EF00005081CFB08FC1EFA0CFC5CEA06060663AF
:104F000019E0C66A5FF01F0CB2F10D075FF0050EE5
:104F100017FB0EF71CFA07F7BE438E465FFA8EFEAC
:104F2000B2F10D0C5FF005081CFB08FC1EFA0CFC2E
:104F30005CEA0606C662BDE8F081816851F08041F6
:104F400081607047C06C80B270470000FFFEFFFCBC
:104F5000FDF7FFC004230140E030FCFF10B4020065
:104F6000002310680C00E4B2204201D0012000E0D0
:104F70000020C0B210BC704738B504460D46AFF3F0
:104F8000008001F077FC0246002000904FF0FF33D4
:104F90002946204601F0D0FC0446AFF300802046AD
:104FA00032BD00000EB4C0B5024603A80021019036
:104FB000009101AB0121044878440C30FBF7E4F880
:104FC00006BC5DF810FB00BFB13A00002DE9F843C4
:104FD000884602FB08F781463C001D4608BF0020BA
:104FE00018D02846AFF300802888410414D5286AD9
:104FF00005F1440188420FD2401C2862641E10F85B
:10500000011D09F8011BF2D12846AFF300803F1BB8
:10501000B7FBF8F0BDE8F283286B10B128610020DF
:105020002863E8682969884204D3284601F020FDF6
:105030000128E9DBE9682869401A2646844288BFCE
:10504000064632464846FCF769F9E868A41B304436
:10505000B144E860E0D1D7E738B504000ED020783D
:1050600010F0030F03D094F90300002809D5AFF323
:105070000080204601F022FCAFF300804FF0FF30AB
:1050800032BD204601F08AFD0546AFF3008020784E
:10509000410644BF606801F09DFD0020606094F906
:1050A0000300022804D901F097FD08B14FF0FF3545
:1050B000E06B48B101F09CFD08B14FF0FF35E06BAB
:1050C00001F088FD0020E063204601F0F7FBAFF31C
:1050D0000080284632BD0000DFF87001006800281B
:1050E00009D5DFF86C01DFF86C110860DFF86801A2
:1050F000DFF86011086070472DE9F04104000D00F1
:10510000002108262800C0B2002801D100270FE0A6
:105110002800C0B2012802D14FF4807708E02800AF
:10512000C0B2022802D14FF4007701E04FF440777B
:1051300000F096F880464046C0B208283AD1DFF821
:105140000C01006830F44070DFF800110860DFF8EF
:10515000FC0000683843DFF8F4100860DFF8EC006A
:10516000006830F0F800DFF8E4100860DFF8DC00D9
:10517000016854F002000143DFF8D0000160DFF85D
:10518000CC00006850F48030DFF8C010086000F0F8
:1051900067F88046DFF8B400006830F00200DFF8FE
:1051A000AC100860DFF8A400006830F0F800DFF809
:1051B0009C1008604046C0B2BDE8F081F8B504001C
:1051C0000D00082700F04CF806003000C0B2082897
:1051D0001BD11E48006830F440701C4908601B4811
:1051E000006850F40070194908601848006850F0D1
:1051F000010016490860256000F032F806001348E7
:10520000006840084000114908603000C0B2F2BD9B
:10521000082112480068C00301D5012013E00F489F
:105220000068C00601D505200DE00C48006810F0AC
:10523000EF0F01D0062006E008480068800701D57E
:10524000072000E00820C0B270470000103C024078
:1052500023016745043C0240AB89EFCD0C3C024082
:1052600080B508208DF80000FFF7D2FF8DF8000010
:105270009DF80000012804D1FFF7CAFF8DF8000057
:10528000F6E79DF8000002BD10B400220388A54C8B
:10529000A0420ED0A94A90420BD0B0F1804F08D066
:1052A000A14A904205D0A14A904202D0A04A904221
:1052B00004D14FF68F7213404A8813439D4A90429F
:1052C00007D09D4A904204D04FF6FF4213400A890E
:1052D000134303804A68C2620A880285914A904259
:1052E00002D0964A904201D18A7A028601228282B5
:1052F00010BC7047C16270470A00D2B2002A04D0C5
:10530000028852F08002028004E003884FF67F7228
:105310001340038070470A00D2B2002A04D00288EA
:1053200052F00102028004E003884FF6FE7213403F
:1053300003807047F0B4002600275FF0000C038C58
:105340004FF6FE7213400384058C8388048B4FF65E
:105350008F7214404FF6FC7214400A8814434FF6C3
:10536000FD7215408A8915434A8815436D4A90425B
:1053700002D0724A904213D14FF6F7721540CA8993
:1053800015434FF6FB7215408A8815434FF6FF62AE
:1053900013404FF6FF5213400A8A13434A8A1343BD
:1053A000838004838A6842630584F0BC7047F0B44C
:1053B000002600275FF0000C038C4FF6EF721340BD
:1053C0000384038C8488058B48F6FF7215404FF6E2
:1053D000FF4215400A8855EA02254FF6DF72134056
:1053E0008A8953EA02134A8853EA02134D4A9042CB
:1053F00002D0524A904217D14FF67F721340CA89A9
:1054000053EA02134FF6BF7213408A8853EA02131D
:105410004FF6FF3214404FF2FF7214400A8A54EAEA
:1054200082044A8A54EA8204848005838A688263FB
:105430000384F0BC7047F0B4002600275FF0000C36
:10544000038C4FF6FF6213400384038C8488858BA2
:105450004FF68F7215404FF6FC7215400A881543BF
:105460004FF6FF5213408A8953EA02234A8853EACF
:1054700002232C4A904202D0304A904217D14FF278
:10548000FF721340CA8953EA02234FF6FF321340DA
:105490008A8853EA02234EF6FF7214404DF6FF72DB
:1054A00014400A8A54EA02144A8A54EA0214848094
:1054B00085838A68C2630384F0BC7047F0B400231C
:1054C00000240025068C4EF6FF7216400684B0F8C4
:1054D00020C08688878B48F6FF7217404FF6FF4240
:1054E00017400A8857EA02274DF6FF7212EA0C0CA1
:1054F0008A895CEA023C4A885CEA023C094A90429A
:1055000002D00E4A904205D14BF6FF7216400A8A2D
:1055100056EA8216868087838A680264A0F820C0D3
:10552000F0BC70470000014000040040000800404B
:10553000000C004000100040001400400004014036
:105540004163704781637047C1637047016470476E
:1055500010B40023048B4FF6F77214400C430483FD
:1055600010BC704710B40023048B4FF2FF7214403C
:1055700054EA0124048310BC704710B40023848BC8
:105580004FF6F77214400C43848310BC704710B47C
:105590000023848B4FF2FF72144054EA0124848369
:1055A00010BC704770B4002301248C40058CA543C7
:1055B0000584058C1600B6B28E403543058470BC58
:1055C0007047F8B504000D002900C9B2200000F0B2
:1055D00013FA012084F81201002084F8130100203E
:1055E0006178884214D2282101FB00F1214411F591
:1055F0008C710E00012171703070F0800021F1700B
:105600004021B1600021F16000217161401CE7E799
:1056100000276078874214D2282000FB07F020443E
:1056200010F55C700600002070703770F780002065
:10563000F0704020B0600020F060002070617F1C9E
:10564000E7E7200000F0F2FA200000F045FA002120
:10565000200000F041FB200000F07FFB200000F064
:10566000D7FAF1BD2DE9F04104000F0015001E002E
:105670003800C0B200060AD53900C9B211F07F0166
:105680002820414304EB010010F58C7809E0390033
:10569000C9B211F07F012820414304EB010010F54D
:1056A0005C7817F07F0088F800003800C0B2C009AD
:1056B00088F80100280080B2C8F8080088F8036064
:1056C00098F80100002803D098F80000A8F8060018
:1056D0003000C0B2022802D1002088F80400414600
:1056E000200000F070FC0020BDE8F08170B50400DF
:1056F0000D002800C0B200060AD52900C9B211F079
:105700007F012820414304EB010010F58C7609E06D
:105710002900C9B211F07F012820414304EB0100A8
:1057200010F55C7615F07F0030702800C0B2C0091B
:1057300070703100200000F080FC002070BD2DE969
:10574000F04104000D0016001F002900C9B211F03D
:105750007F012820414304EB010010F55C78C8F874
:105760000C60380080B2C8F814000020C8F8180097
:10577000002088F8010015F07F0088F80000E0782C
:10578000012801D1C8F8106098F80000002804D161
:105790004146200000F03BFD03E04146200000F0C0
:1057A00076FC0020BDE8F0812DE9F04104000D00F9
:1057B00016001F002900C9B211F07F0128204143C3
:1057C00004EB010010F58C78012088F8010015F039
:1057D0007F0088F80000C8F80C60C8F8106000204E
:1057E000C8F81800C8F8147098F80000002804D110
:1057F0004146200000F00BFD03E04146200000F090
:1058000046FC0020BDE8F08170B504000D002800C2
:10581000C0B200060AD52900C9B211F07F012820C4
:10582000414304EB010010F58C7607E02900C9B272
:105830002820414304EB010010F55C760120B07094
:1058400015F07F0030702800C0B2C00970703100C0
:10585000200000F06FFD002070BD70B504000D0049
:105860002800C0B200060AD52900C9B211F07F0194
:105870002820414304EB010010F58C7607E0290055
:10588000C9B22820414304EB010010F55C760020EA
:10589000B07015F07F0030702800C0B2C009707081
:1058A0003100200000F067FD002070BD38B5040015
:1058B0000D002800C0B2000607D52900C9B211F0BA
:1058C0007F01200000F0C0F902E0200000F0E0F9C4
:1058D000002032BD10B400220B00DBB263F30A12C9
:1058E00003691B6813430469236010BC704738B513
:1058F00004002069456855F00205206945600320D1
:1059000001F0FCF931BD000000215FF0FF32C368F7
:105910005A605FF0FF32C3685A6151F0004151F4A0
:105920000061C26891617047F8B504000025002647
:1059300000200090032001F0D5F9E0680069009094
:10594000761CDFF88C03864201D300201AE0009811
:10595000C00F0028EED00027009850F00100009002
:105960000098E1680861E068006900907F1CD848F1
:10597000874202D20098C007F5D4032001F0B2F9A3
:105980002800C0B2F2BDF8B505000020EC78002C6C
:105990001AD1002400271E00B6B2F61C5FF0040CDA
:1059A00096FBFCF694465FFA8CFC05EB8C0CDCF85D
:1059B000D0E05FF0000CB44506D20C68CEF8004091
:1059C0001CF1010C091DF6E7C0B2F2BD70B4030072
:1059D00000201400A4B2E41C042594FBF5F5D3F8D0
:1059E000D0600024AC4204D230680860641C091DF9
:1059F000F8E7080070BC704770B403000024002072
:105A00000022DA7001229A7040229A800A00D2B2F3
:105A1000012A0ED15FF0A04214000122DA7208229E
:105A20001A7004225A704FF4A072DA8002221A729D
:105A30000EE00A00D2B2002A0AD1A64A14000022BF
:105A4000DA720C221A7006225A704FF4A062DA80C1
:105A5000DC6014F500621A6100225D78AA420FD260
:105A600014EB421515F5106503EB8206B56114EBD6
:105A7000421515F5306503EB82067565521CECE79F
:105A800014F580655D6114F58865C3F8CC50002578
:105A90001A78954209D214EB451212F5A06203EB75
:105AA0008506C6F890206D1CF2E700221D78AA42F8
:105AB0000BD24FF4805505FB024515F5805503EBDD
:105AC0008206C6F8D050521CF0E714F56065C3F8A2
:105AD0000C51C0B270BC70472DE9F84F060000278A
